:03000000020100FA
:1001000012810875816012810C783012811E78305E
:10011000128120C031C03012811CB40A03020135A3
:10012000B40B03020170B40C03020173B40D03029B
:1001300001AC020204742B128102783012811E7805
:1001400030128120743D128102D033D032E5302547
:1001500033F530E5313532F5317830128122E53230
:10016000128104E531128104E53012810402020794
:10017000020207742A128102783012811E7830122E
:100180008120743D128102D033D032E5338532F0C4
:100190007830128124E533128104E532128104E5BE
:1001A00031128104E530128104020207742F12819A
:1001B00002783612811E7836128120743D12810237
:1001C000D035D034E5368537F08535308534317516
:1001D0003200753300783012812A7830128122780B
:1001E000341281227836128122E531128104E53001
:1001F0001281047420128102E535128104E5341263
:0F0200008104800302010312811A02010380FEB0
:00000001FF
