:03000000020100FA
:1001000012810875816012810C783012811E78305E
:10011000128120C031C03012811CB40A03020135A3
:10012000B40B03020170B40C03020173B40D03029B
:1001300001AC0201AF742B128102783012811E785B
:1001400030128120743D128102D033D032E5302547
:1001500033F530E5313532F5317830128122E53230
:10016000128104E531128104E5301281040201B2EA
:100170000201B8742A128102783012811E7830127E
:100180008120743D128102D033D032E5338532F0C4
:100190007830128124E533128104E532128104E5BE
:1001A00031128104E5301281040201B20201B80269
:0A01B000010312811A02010380FE10
:00000001FF
