:03000000020100FA
:1001000012810875816012810C783012811E78305E
:10011000128120C031C03012811CB40A03020135A3
:10012000B40B03020170B40C03020173B40D03029B
:1001300001B60201B9742B128102783012811E7847
:1001400030128120743D128102D033D032E5302547
:1001500033F530E5313532F5317830128122E53230
:10016000128104E531128104E5301281040201BCE0
:100170000201BC742A128102783012811E7830127A
:100180008120743D128102D033D032E5338532F0C4
:10019000783012812478301281227832128122E55F
:1001A00033128104E532128104E531128104E53015
:0E01B0001281040201BC0201BC02010380FEA8
:00000001FF
